:0300000002097D75
:10097D00787FE4F6D8FD7543F875440075816A02F9
:02098D0006E181
:100894001208F77BFF7A04791CE4FF1206487BFFF9
:1008A4007A04798E7F011206487BFF7A0579007FEE
:0408B40002020648EE
:10041C00754601EF75F00CA4244AF8E6FC08E6FDDD
:10042C00EC704CED24EE603424127043EF75F00C3C
:10043C00A4244EF87601EF75F00CA4244CF8E4F6E5
:10044C0008F6EF75F00CA4244CF8760008760AEF49
:10045C0075F00CA4244AF87600087612EF75F00CAF
:10046C00A4244DF9E719476004E4FEFF22B2C8E466
:10047C00F546EF75F00CA4244AF8E4F608F6FE7F76
:01048C00036C
:01048D00224C
:10048E00754601EF75F00CA4244AF8E6FC08E6FD6B
:10049E00EC704CED24E66034241A7043EF75F00CCA
:1004AE00A4244EF87601EF75F00CA4244CF8E4F673
:1004BE0008F6EF75F00CA4244CF87600087614EFCD
:1004CE0075F00CA4244AF8760008761AEF75F00C35
:1004DE00A4244DF9E719476004E4FEFF22B2C9E4F3
:1004EE00F546EF75F00CA4244AF8E4F608F6FE7F04
:0104FE0003FA
:0104FF0022DA
:10050000754601EF75F00CA4244AF8E6FC08E6FDF8
:10051000EC704CED24DE603424227043EF75F00C57
:10052000A4244EF87601EF75F00CA4244CF8E4F600
:1005300008F6EF75F00CA4244CF87600087628EF46
:1005400075F00CA4244AF87600087622EF75F00CBA
:10055000A4244DF9E719476004E4FEFF22B2CAE47F
:10056000F546EF75F00CA4244AF8E4F608F6FE7F91
:010570000387
:010571002267
:040003007F02DFFE9B
:0100070022D6
:0809A1007F127EEBDEFEDFFC9D
:0109A900222B
:10092E00AD07AC06ED1DAE0470011C4E600512093C
:04093E00A180F12281
:10094200AD07AC06ED1DAE0470011C4E6005120031
:040952000380F1220B
:1008F70075942075932075923C75913CE4F596F5B7
:0E09070095F5B2F5B1F5B4F5B3F5CAF5C92210
:1008B8000001000200040008001000200040008031
:1008C8000100020004000800100020004000800021
:10098F0075C0FFC2CDD2CCD2CB00E5C05480FFC220
:01099F00CB8C
:0109A0002234
:10091500AE0712098FEF70FAD2CDC2CCC2CB000060
:090925008EC0D2CB0000C2CB222F
:1008220029FF1208DC120835AD077C00120835EFEB
:030832007D00FC4A
:1008350012098FEF70FA75C0FFD2CDD2CCD2CB00A2
:04084500AFC0C2CBB3
:01084900228C
:0408D800EA2480FF8F
:1008DC00AE0712098FEF70FAC2CDC2CCC2CB0000AA
:0B08EC008EC00000D2CB0000C2CB2267
:10072B00AE07EDD39403503EEE94075039ED1460B1
:10073B000F14601114601324037016EE2480800DC7
:10074B00EE24908008EE24888003EE2498FF120894
:10075B00DC120695FFD39400400C12091574012985
:07076B00F9E43AFA80EB22E9
:100956007F301208DC7F0C1208DC7F011208DC7F76
:04096600060208DCA1
:10077200EF20E004E4FD80027DFF7F361208DCE416
:10078200FCECC39409502BE4FBE4FAEB2480FF1247
:1007920008DCEA24802CFF1208DCAF05120915AF31
:1007A200051209150ABA08E30BBB20DD74082CFCFC
:0707B20080CF7F300208DC5C
:0603A4008B2A8A2B892C34
:1003AA00E4F52DF52E7F341208DC7F361208DCE4E2
:1003BA00FDED4480FF1208DC7F801208DC852D2FBA
:1003CA00852E30E4FCECC4540F6023AB2AAA2BA977
:1003DA002CE42530FFE52F34028F82F5831206AE16
:1003EA00FF1209150530E530701F052F801BAB2A57
:1003FA00AA2BA92C852E82852D831206AEFF1209FF
:10040A0015052EE52E7002052D0CBC20B80DBD2059
:01041A00A041
:01041B0022BE
:09028900FFC3E5289524FDAB2913
:04029200AA05A90709
:10029600E9C39480400302032AEAC3944040030260
:1002A600032A530301E9540FFFC3740F9FF542E974
:1002B600C4540FF9EAC39420500575418080037534
:1002C600418853021F7F361208DC1208D8E5411216
:1002D6000822EFFDE542BB011625E024B8F582E4CD
:1002E6003408F583E49342047401934205801C2587
:1002F600E024B8F582E43408F583E493FE740193B0
:10030600F4FFEEF4FEEF5205EE52041208D8E54172
:1003160029FF1208DCAF04120915AF051209157F73
:04032600301208DCAD
:01032A0022B0
:02057200AB07D5
:10057400EBC394805006EDC3944040037F0022EB0C
:10058400540FFFC3740F9FFAEBC4540FFBEDC394D5
:1005940020500479808002798853051F7F36120821
:1005A400DCED2480FF1208DCEB120822EFFDED4C99
:1005B400601BEA25E024B8F582E43408F58374016D
:1005C400937002E49360067E007F0180047E007FC6
:0905D40000EF4E7002FF227F01CE
:0105DD0022FB
:06084A008F378D388B3959
:10085000E539601AE4F53BE53BC395395010E537BF
:0E086000253BFFAB3AAD38120292053B80E912
:01086E002267
:06086F008F3C8D3D8B3E25
:10087500E53E601AE4F540E540C3953E5010E53D80
:0E0885002540FDAB3FAF3C120292054080E9DA
:010893002242
:06000E008F158D168B1703
:10001400E515B51708851A3FAB1902086FE516B543
:10002400180B851A3AAB19FDAF1502084AC3E51738
:100034009515FFC3E5189516F51BD3EF64809480DE
:100044004005751C018003751CFFD3E51B64809477
:10005400804005751D018003751DFFE51C8FF0A40C
:10006400FFE51D851BF0A4F51BEF25E0F51EE51B40
:1000740025E0F51FC3E51B6480F8EF648098403CDD
:10008400E51F9FF520E5156517606CAB1AAD16AF3B
:1000940015120292E51C2515F515C3E5206480941C
:1000A400805008E51F2520F52080DAC3E51F951E42
:1000B4002520F520E51D2516F51680C9C3E51E95F6
:1000C4001BF520E5166518602EAB1AAD16AF151298
:1000D4000292E51D2516F516C3E520648094805030
:1000E40008E51E2520F52080DAC3E51E951F25208E
:1000F400F520851C1580CCAB1AAD16AF15120292F3
:0101040022D8
:0605DE008F318D328B33DA
:1005E400E531D3953340098531368533318536334A
:1005F400E532D39534400985323685343285363434
:10060400C3E534953204FB85353FAD32AF31120872
:100614006FC3E534953204FB85353FAD32AF3312F9
:10062400086FC3E533953104FB85353AAD32AF31FC
:1006340012084AC3E533953104FB85353AAD34AF2E
:040644003102084A2D
:10032B008E218F228C238D248A258B26E5262FFF69
:10033B00E5282524FDAB29120292E526252212027F
:10034B0089C3E5269522FFE5282524FDAB2912025A
:10035B0092C3E5269522120289E5262524FFE5287E
:10036B002522FDAB29120292E5262524FFC3E528A1
:10037B009522FDAB29120292C3E5269524FFE528B1
:10038B002522FDAB29120292C3E5269524FFC3E576
:09039B00289522FDAB2902029213
:080105008E088F098C0A8D0B96
:10010D008A118B12EB25E0FFEA33FEC374039FF5D2
:10011D0014E49EF513E4F50FF510D3E5109512E5F3
:10012D00116480F8E50F64809840030201D4850ABC
:10013D0027850B28850E29AB09AA08AD12AC11AF86
:10014D0010AE0F12032BC3E51364809480502BE582
:10015D001025E0FFE50F33FEE5102FFFE50F3EFE06
:10016D00E5102FCFE50F3ECF2406CF3400FEEF254F
:10017D0014F514EE3513F513803FC3E5109512FFFA
:10018D00E50F9511FEEF25E0FFEE33FEC3E510956B
:10019D0012FDE50F9511FCED2FFFEC3ECF2DCF3C61
:1001AD00CF240ACF3400FEEF2514F514EE3513F5E8
:1001BD0013E5121512700215110510E510600302FA
:0701CD000127050F020127C5
:0101D4002208
:1007F700AC07ED7007EC2480FF1208DCBD0107ECA5
:100807002490FF1208DCBD0207EC2488FF1208DCE5
:0B081700BD0307EC2498FF1208DC2250
:1001D50075343F7535017B7FE4FDFF1205DE0000B8
:1001E50000000075343C7535017B7B7D047F04126E
:1001F50005DE00000000007534387535017B777D1C
:10020500087F081205DE00000000007534347535DE
:10021500017B737D0C7F0C1205DE0000000000756C
:1002250034307535017B6F7D107F101205DE0000BF
:1002350000000075342C7535017B6B7D147F14121D
:1002450005DE00000000007534287535017B677DEB
:10025500187F181205DE000000000075342475357E
:10026500017B637D1C7F1C1205DE0000000000750C
:1002750034207535017B5F7D207F201205DE00006F
:040285000000002253
:0100080022D5
:10064800EF75F00CA42447F8A60308A60208A60133
:10065800EF75F00CA4244AF8E4F608F6EF75F00CF0
:10066800A4244CF8E4F608F6EF75F00CA4244EF830
:100678007601EF75F00CA4244FF8A607EF75F00C7F
:0D068800A42450F8760008760008760022C1
:10096A00538E7F5389F0E4F58A758C4CC28DC28C04
:03097A00D2A922DD
:03000B000207B930
:0F07B900C0E0C0F0C0D075D000C000C001C007C4
:1007C800E4FFEF75F00CA4244DF9E71947600FEF2B
:1007D80075F00CA4244CF808E616187001160FBF23
:0207E80003E02C
:0D07EA00D007D001D000D0D0D0F0D0E03248
:1006E10012089412096AD28CD2AFE4F545E545753A
:1006F100F00CA4244EF8E6B40125E54575F00CA4F0
:10070100244DF9E719477017E54575F00CA4244706
:10071100F808E6FA08E6F5828A83AF451206DF0596
:0A07210045E545C3940340C580C0C0
:10069500BB010689828A83E0225002E722BBFE0263
:0906A500E32289828A83E4932296
:1006AE00BB010CE58229F582E5833AF583E0225001
:1006BE0006E92582F8E622BBFE06E92582F8E2224B
:0D06CE00E58229F582E5833AF583E4932265
:0606DB008A838982E473AA
:00000001FF
